{
	"contracts/TokenTransfer.sol": {
		"TokenTransfer": {
			"abi": [
				{
					"inputs": [],
					"stateMutability": "nonpayable",
					"type": "constructor"
				},
				{
					"anonymous": false,
					"inputs": [
						{
							"indexed": true,
							"internalType": "address",
							"name": "token",
							"type": "address"
						},
						{
							"indexed": true,
							"internalType": "address",
							"name": "from",
							"type": "address"
						},
						{
							"indexed": true,
							"internalType": "address",
							"name": "to",
							"type": "address"
						},
						{
							"indexed": false,
							"internalType": "uint256",
							"name": "amount",
							"type": "uint256"
						}
					],
					"name": "TokenSent",
					"type": "event"
				},
				{
					"inputs": [
						{
							"internalType": "address",
							"name": "newOwner",
							"type": "address"
						}
					],
					"name": "changeOwner",
					"outputs": [],
					"stateMutability": "nonpayable",
					"type": "function"
				},
				{
					"inputs": [
						{
							"internalType": "address",
							"name": "token",
							"type": "address"
						}
					],
					"name": "contractTokenBalance",
					"outputs": [
						{
							"internalType": "uint256",
							"name": "",
							"type": "uint256"
						}
					],
					"stateMutability": "view",
					"type": "function"
				},
				{
					"inputs": [],
					"name": "owner",
					"outputs": [
						{
							"internalType": "address",
							"name": "",
							"type": "address"
						}
					],
					"stateMutability": "view",
					"type": "function"
				},
				{
					"inputs": [
						{
							"internalType": "address",
							"name": "token",
							"type": "address"
						},
						{
							"internalType": "address",
							"name": "from",
							"type": "address"
						},
						{
							"internalType": "address",
							"name": "to",
							"type": "address"
						},
						{
							"internalType": "uint256",
							"name": "amount",
							"type": "uint256"
						}
					],
					"name": "transferFromUser",
					"outputs": [],
					"stateMutability": "nonpayable",
					"type": "function"
				},
				{
					"inputs": [
						{
							"internalType": "address",
							"name": "token",
							"type": "address"
						},
						{
							"internalType": "address",
							"name": "to",
							"type": "address"
						},
						{
							"internalType": "uint256",
							"name": "amount",
							"type": "uint256"
						}
					],
					"name": "transferToken",
					"outputs": [],
					"stateMutability": "nonpayable",
					"type": "function"
				}
			],
			"devdoc": {
				"kind": "dev",
				"methods": {},
				"version": 1
			},
			"evm": {
				"assembly": "    /* \"contracts/TokenTransfer.sol\":466:1610  contract TokenTransfer {... */\n  mstore(0x40, 0x80)\n    /* \"contracts/TokenTransfer.sol\":755:806  constructor() {... */\n  callvalue\n  dup1\n  iszero\n  tag_1\n  jumpi\n  revert(0x00, 0x00)\ntag_1:\n  pop\n    /* \"contracts/TokenTransfer.sol\":788:798  msg.sender */\n  caller\n    /* \"contracts/TokenTransfer.sol\":780:785  owner */\n  0x00\n  0x00\n    /* \"contracts/TokenTransfer.sol\":780:798  owner = msg.sender */\n  0x0100\n  exp\n  dup2\n  sload\n  dup2\n  0xffffffffffffffffffffffffffffffffffffffff\n  mul\n  not\n  and\n  swap1\n  dup4\n  0xffffffffffffffffffffffffffffffffffffffff\n  and\n  mul\n  or\n  swap1\n  sstore\n  pop\n    /* \"contracts/TokenTransfer.sol\":466:1610  contract TokenTransfer {... */\n  dataSize(sub_0)\n  dup1\n  dataOffset(sub_0)\n  0x00\n  codecopy\n  0x00\n  return\nstop\n\nsub_0: assembly {\n        /* \"contracts/TokenTransfer.sol\":466:1610  contract TokenTransfer {... */\n      mstore(0x40, 0x80)\n      callvalue\n      dup1\n      iszero\n      tag_1\n      jumpi\n      revert(0x00, 0x00)\n    tag_1:\n      pop\n      jumpi(tag_2, lt(calldatasize, 0x04))\n      shr(0xe0, calldataload(0x00))\n      dup1\n      0x66e3e5e4\n      eq\n      tag_3\n      jumpi\n      dup1\n      0x8da5cb5b\n      eq\n      tag_4\n      jumpi\n      dup1\n      0xa0c8f174\n      eq\n      tag_5\n      jumpi\n      dup1\n      0xa6f9dae1\n      eq\n      tag_6\n      jumpi\n      dup1\n      0xf5537ede\n      eq\n      tag_7\n      jumpi\n    tag_2:\n      revert(0x00, 0x00)\n        /* \"contracts/TokenTransfer.sol\":1365:1506  function contractTokenBalance(address token) external view returns (uint256) {... */\n    tag_3:\n      tag_8\n      0x04\n      dup1\n      calldatasize\n      sub\n      dup2\n      add\n      swap1\n      tag_9\n      swap2\n      swap1\n      tag_10\n      jump\t// in\n    tag_9:\n      tag_11\n      jump\t// in\n    tag_8:\n      mload(0x40)\n      tag_12\n      swap2\n      swap1\n      tag_13\n      jump\t// in\n    tag_12:\n      mload(0x40)\n      dup1\n      swap2\n      sub\n      swap1\n      return\n        /* \"contracts/TokenTransfer.sol\":496:516  address public owner */\n    tag_4:\n      tag_14\n      tag_15\n      jump\t// in\n    tag_14:\n      mload(0x40)\n      tag_16\n      swap2\n      swap1\n      tag_17\n      jump\t// in\n    tag_16:\n      mload(0x40)\n      dup1\n      swap2\n      sub\n      swap1\n      return\n        /* \"contracts/TokenTransfer.sol\":1086:1357  function transferFromUser(address token, address from, address to, uint256 amount) external {... */\n    tag_5:\n      tag_18\n      0x04\n      dup1\n      calldatasize\n      sub\n      dup2\n      add\n      swap1\n      tag_19\n      swap2\n      swap1\n      tag_20\n      jump\t// in\n    tag_19:\n      tag_21\n      jump\t// in\n    tag_18:\n      stop\n        /* \"contracts/TokenTransfer.sol\":1514:1607  function changeOwner(address newOwner) external onlyOwner {... */\n    tag_6:\n      tag_22\n      0x04\n      dup1\n      calldatasize\n      sub\n      dup2\n      add\n      swap1\n      tag_23\n      swap2\n      swap1\n      tag_10\n      jump\t// in\n    tag_23:\n      tag_24\n      jump\t// in\n    tag_22:\n      stop\n        /* \"contracts/TokenTransfer.sol\":814:1078  function transferToken(address token, address to, uint256 amount) external onlyOwner {... */\n    tag_7:\n      tag_25\n      0x04\n      dup1\n      calldatasize\n      sub\n      dup2\n      add\n      swap1\n      tag_26\n      swap2\n      swap1\n      tag_27\n      jump\t// in\n    tag_26:\n      tag_28\n      jump\t// in\n    tag_25:\n      stop\n        /* \"contracts/TokenTransfer.sol\":1365:1506  function contractTokenBalance(address token) external view returns (uint256) {... */\n    tag_11:\n        /* \"contracts/TokenTransfer.sol\":1433:1440  uint256 */\n      0x00\n        /* \"contracts/TokenTransfer.sol\":1467:1472  token */\n      dup2\n        /* \"contracts/TokenTransfer.sol\":1460:1483  IERC20(token).balanceOf */\n      0xffffffffffffffffffffffffffffffffffffffff\n      and\n      0x70a08231\n        /* \"contracts/TokenTransfer.sol\":1492:1496  this */\n      address\n        /* \"contracts/TokenTransfer.sol\":1460:1498  IERC20(token).balanceOf(address(this)) */\n      mload(0x40)\n      dup3\n      0xffffffff\n      and\n      0xe0\n      shl\n      dup2\n      mstore\n      0x04\n      add\n      tag_30\n      swap2\n      swap1\n      tag_17\n      jump\t// in\n    tag_30:\n      0x20\n      mload(0x40)\n      dup1\n      dup4\n      sub\n      dup2\n      dup7\n      gas\n      staticcall\n      iszero\n      dup1\n      iszero\n      tag_32\n      jumpi\n      returndatacopy(0x00, 0x00, returndatasize)\n      revert(0x00, returndatasize)\n    tag_32:\n      pop\n      pop\n      pop\n      pop\n      mload(0x40)\n      returndatasize\n      not(0x1f)\n      0x1f\n      dup3\n      add\n      and\n      dup3\n      add\n      dup1\n      0x40\n      mstore\n      pop\n      dup2\n      add\n      swap1\n      tag_33\n      swap2\n      swap1\n      tag_34\n      jump\t// in\n    tag_33:\n        /* \"contracts/TokenTransfer.sol\":1453:1498  return IERC20(token).balanceOf(address(this)) */\n      swap1\n      pop\n        /* \"contracts/TokenTransfer.sol\":1365:1506  function contractTokenBalance(address token) external view returns (uint256) {... */\n      swap2\n      swap1\n      pop\n      jump\t// out\n        /* \"contracts/TokenTransfer.sol\":496:516  address public owner */\n    tag_15:\n      0x00\n      0x00\n      swap1\n      sload\n      swap1\n      0x0100\n      exp\n      swap1\n      div\n      0xffffffffffffffffffffffffffffffffffffffff\n      and\n      dup2\n      jump\t// out\n        /* \"contracts/TokenTransfer.sol\":1086:1357  function transferFromUser(address token, address from, address to, uint256 amount) external {... */\n    tag_21:\n        /* \"contracts/TokenTransfer.sol\":1189:1201  bool success */\n      0x00\n        /* \"contracts/TokenTransfer.sol\":1211:1216  token */\n      dup5\n        /* \"contracts/TokenTransfer.sol\":1204:1230  IERC20(token).transferFrom */\n      0xffffffffffffffffffffffffffffffffffffffff\n      and\n      0x23b872dd\n        /* \"contracts/TokenTransfer.sol\":1231:1235  from */\n      dup6\n        /* \"contracts/TokenTransfer.sol\":1237:1239  to */\n      dup6\n        /* \"contracts/TokenTransfer.sol\":1241:1247  amount */\n      dup6\n        /* \"contracts/TokenTransfer.sol\":1204:1248  IERC20(token).transferFrom(from, to, amount) */\n      mload(0x40)\n      dup5\n      0xffffffff\n      and\n      0xe0\n      shl\n      dup2\n      mstore\n      0x04\n      add\n      tag_36\n      swap4\n      swap3\n      swap2\n      swap1\n      tag_37\n      jump\t// in\n    tag_36:\n      0x20\n      mload(0x40)\n      dup1\n      dup4\n      sub\n      dup2\n      0x00\n      dup8\n      gas\n      call\n      iszero\n      dup1\n      iszero\n      tag_39\n      jumpi\n      returndatacopy(0x00, 0x00, returndatasize)\n      revert(0x00, returndatasize)\n    tag_39:\n      pop\n      pop\n      pop\n      pop\n      mload(0x40)\n      returndatasize\n      not(0x1f)\n      0x1f\n      dup3\n      add\n      and\n      dup3\n      add\n      dup1\n      0x40\n      mstore\n      pop\n      dup2\n      add\n      swap1\n      tag_40\n      swap2\n      swap1\n      tag_41\n      jump\t// in\n    tag_40:\n        /* \"contracts/TokenTransfer.sol\":1189:1248  bool success = IERC20(token).transferFrom(from, to, amount) */\n      swap1\n      pop\n        /* \"contracts/TokenTransfer.sol\":1267:1274  success */\n      dup1\n        /* \"contracts/TokenTransfer.sol\":1259:1299  require(success, \"transferFrom fallida\") */\n      tag_42\n      jumpi\n      mload(0x40)\n      0x08c379a000000000000000000000000000000000000000000000000000000000\n      dup2\n      mstore\n      0x04\n      add\n      tag_43\n      swap1\n      tag_44\n      jump\t// in\n    tag_43:\n      mload(0x40)\n      dup1\n      swap2\n      sub\n      swap1\n      revert\n    tag_42:\n        /* \"contracts/TokenTransfer.sol\":1338:1340  to */\n      dup3\n        /* \"contracts/TokenTransfer.sol\":1315:1349  TokenSent(token, from, to, amount) */\n      0xffffffffffffffffffffffffffffffffffffffff\n      and\n        /* \"contracts/TokenTransfer.sol\":1332:1336  from */\n      dup5\n        /* \"contracts/TokenTransfer.sol\":1315:1349  TokenSent(token, from, to, amount) */\n      0xffffffffffffffffffffffffffffffffffffffff\n      and\n        /* \"contracts/TokenTransfer.sol\":1325:1330  token */\n      dup7\n        /* \"contracts/TokenTransfer.sol\":1315:1349  TokenSent(token, from, to, amount) */\n      0xffffffffffffffffffffffffffffffffffffffff\n      and\n      0xa4162acb2096ecf8e81304c656b4ff4eb143f95264f26ac3dad5a3b96bb68b53\n        /* \"contracts/TokenTransfer.sol\":1342:1348  amount */\n      dup6\n        /* \"contracts/TokenTransfer.sol\":1315:1349  TokenSent(token, from, to, amount) */\n      mload(0x40)\n      tag_45\n      swap2\n      swap1\n      tag_13\n      jump\t// in\n    tag_45:\n      mload(0x40)\n      dup1\n      swap2\n      sub\n      swap1\n      log4\n        /* \"contracts/TokenTransfer.sol\":1178:1357  {... */\n      pop\n        /* \"contracts/TokenTransfer.sol\":1086:1357  function transferFromUser(address token, address from, address to, uint256 amount) external {... */\n      pop\n      pop\n      pop\n      pop\n      jump\t// out\n        /* \"contracts/TokenTransfer.sol\":1514:1607  function changeOwner(address newOwner) external onlyOwner {... */\n    tag_24:\n        /* \"contracts/TokenTransfer.sol\":684:689  owner */\n      0x00\n      0x00\n      swap1\n      sload\n      swap1\n      0x0100\n      exp\n      swap1\n      div\n      0xffffffffffffffffffffffffffffffffffffffff\n      and\n        /* \"contracts/TokenTransfer.sol\":670:689  msg.sender == owner */\n      0xffffffffffffffffffffffffffffffffffffffff\n      and\n        /* \"contracts/TokenTransfer.sol\":670:680  msg.sender */\n      caller\n        /* \"contracts/TokenTransfer.sol\":670:689  msg.sender == owner */\n      0xffffffffffffffffffffffffffffffffffffffff\n      and\n      eq\n        /* \"contracts/TokenTransfer.sol\":662:727  require(msg.sender == owner, \"Solo el owner puede ejecutar esto\") */\n      tag_47\n      jumpi\n      mload(0x40)\n      0x08c379a000000000000000000000000000000000000000000000000000000000\n      dup2\n      mstore\n      0x04\n      add\n      tag_48\n      swap1\n      tag_49\n      jump\t// in\n    tag_48:\n      mload(0x40)\n      dup1\n      swap2\n      sub\n      swap1\n      revert\n    tag_47:\n        /* \"contracts/TokenTransfer.sol\":1591:1599  newOwner */\n      dup1\n        /* \"contracts/TokenTransfer.sol\":1583:1588  owner */\n      0x00\n      0x00\n        /* \"contracts/TokenTransfer.sol\":1583:1599  owner = newOwner */\n      0x0100\n      exp\n      dup2\n      sload\n      dup2\n      0xffffffffffffffffffffffffffffffffffffffff\n      mul\n      not\n      and\n      swap1\n      dup4\n      0xffffffffffffffffffffffffffffffffffffffff\n      and\n      mul\n      or\n      swap1\n      sstore\n      pop\n        /* \"contracts/TokenTransfer.sol\":1514:1607  function changeOwner(address newOwner) external onlyOwner {... */\n      pop\n      jump\t// out\n        /* \"contracts/TokenTransfer.sol\":814:1078  function transferToken(address token, address to, uint256 amount) external onlyOwner {... */\n    tag_28:\n        /* \"contracts/TokenTransfer.sol\":684:689  owner */\n      0x00\n      0x00\n      swap1\n      sload\n      swap1\n      0x0100\n      exp\n      swap1\n      div\n      0xffffffffffffffffffffffffffffffffffffffff\n      and\n        /* \"contracts/TokenTransfer.sol\":670:689  msg.sender == owner */\n      0xffffffffffffffffffffffffffffffffffffffff\n      and\n        /* \"contracts/TokenTransfer.sol\":670:680  msg.sender */\n      caller\n        /* \"contracts/TokenTransfer.sol\":670:689  msg.sender == owner */\n      0xffffffffffffffffffffffffffffffffffffffff\n      and\n      eq\n        /* \"contracts/TokenTransfer.sol\":662:727  require(msg.sender == owner, \"Solo el owner puede ejecutar esto\") */\n      tag_52\n      jumpi\n      mload(0x40)\n      0x08c379a000000000000000000000000000000000000000000000000000000000\n      dup2\n      mstore\n      0x04\n      add\n      tag_53\n      swap1\n      tag_49\n      jump\t// in\n    tag_53:\n      mload(0x40)\n      dup1\n      swap2\n      sub\n      swap1\n      revert\n    tag_52:\n        /* \"contracts/TokenTransfer.sol\":910:922  bool success */\n      0x00\n        /* \"contracts/TokenTransfer.sol\":932:937  token */\n      dup4\n        /* \"contracts/TokenTransfer.sol\":925:947  IERC20(token).transfer */\n      0xffffffffffffffffffffffffffffffffffffffff\n      and\n      0xa9059cbb\n        /* \"contracts/TokenTransfer.sol\":948:950  to */\n      dup5\n        /* \"contracts/TokenTransfer.sol\":952:958  amount */\n      dup5\n        /* \"contracts/TokenTransfer.sol\":925:959  IERC20(token).transfer(to, amount) */\n      mload(0x40)\n      dup4\n      0xffffffff\n      and\n      0xe0\n      shl\n      dup2\n      mstore\n      0x04\n      add\n      tag_55\n      swap3\n      swap2\n      swap1\n      tag_56\n      jump\t// in\n    tag_55:\n      0x20\n      mload(0x40)\n      dup1\n      dup4\n      sub\n      dup2\n      0x00\n      dup8\n      gas\n      call\n      iszero\n      dup1\n      iszero\n      tag_58\n      jumpi\n      returndatacopy(0x00, 0x00, returndatasize)\n      revert(0x00, returndatasize)\n    tag_58:\n      pop\n      pop\n      pop\n      pop\n      mload(0x40)\n      returndatasize\n      not(0x1f)\n      0x1f\n      dup3\n      add\n      and\n      dup3\n      add\n      dup1\n      0x40\n      mstore\n      pop\n      dup2\n      add\n      swap1\n      tag_59\n      swap2\n      swap1\n      tag_41\n      jump\t// in\n    tag_59:\n        /* \"contracts/TokenTransfer.sol\":910:959  bool success = IERC20(token).transfer(to, amount) */\n      swap1\n      pop\n        /* \"contracts/TokenTransfer.sol\":978:985  success */\n      dup1\n        /* \"contracts/TokenTransfer.sol\":970:1011  require(success, \"Transferencia fallida\") */\n      tag_60\n      jumpi\n      mload(0x40)\n      0x08c379a000000000000000000000000000000000000000000000000000000000\n      dup2\n      mstore\n      0x04\n      add\n      tag_61\n      swap1\n      tag_62\n      jump\t// in\n    tag_61:\n      mload(0x40)\n      dup1\n      swap2\n      sub\n      swap1\n      revert\n    tag_60:\n        /* \"contracts/TokenTransfer.sol\":1059:1061  to */\n      dup3\n        /* \"contracts/TokenTransfer.sol\":1027:1070  TokenSent(token, address(this), to, amount) */\n      0xffffffffffffffffffffffffffffffffffffffff\n      and\n        /* \"contracts/TokenTransfer.sol\":1052:1056  this */\n      address\n        /* \"contracts/TokenTransfer.sol\":1027:1070  TokenSent(token, address(this), to, amount) */\n      0xffffffffffffffffffffffffffffffffffffffff\n      and\n        /* \"contracts/TokenTransfer.sol\":1037:1042  token */\n      dup6\n        /* \"contracts/TokenTransfer.sol\":1027:1070  TokenSent(token, address(this), to, amount) */\n      0xffffffffffffffffffffffffffffffffffffffff\n      and\n      0xa4162acb2096ecf8e81304c656b4ff4eb143f95264f26ac3dad5a3b96bb68b53\n        /* \"contracts/TokenTransfer.sol\":1063:1069  amount */\n      dup6\n        /* \"contracts/TokenTransfer.sol\":1027:1070  TokenSent(token, address(this), to, amount) */\n      mload(0x40)\n      tag_63\n      swap2\n      swap1\n      tag_13\n      jump\t// in\n    tag_63:\n      mload(0x40)\n      dup1\n      swap2\n      sub\n      swap1\n      log4\n        /* \"contracts/TokenTransfer.sol\":899:1078  {... */\n      pop\n        /* \"contracts/TokenTransfer.sol\":814:1078  function transferToken(address token, address to, uint256 amount) external onlyOwner {... */\n      pop\n      pop\n      pop\n      jump\t// out\n        /* \"#utility.yul\":88:205   */\n    tag_65:\n        /* \"#utility.yul\":197:198   */\n      0x00\n        /* \"#utility.yul\":194:195   */\n      0x00\n        /* \"#utility.yul\":187:199   */\n      revert\n        /* \"#utility.yul\":334:460   */\n    tag_67:\n        /* \"#utility.yul\":371:378   */\n      0x00\n        /* \"#utility.yul\":411:453   */\n      0xffffffffffffffffffffffffffffffffffffffff\n        /* \"#utility.yul\":404:409   */\n      dup3\n        /* \"#utility.yul\":400:454   */\n      and\n        /* \"#utility.yul\":389:454   */\n      swap1\n      pop\n        /* \"#utility.yul\":334:460   */\n      swap2\n      swap1\n      pop\n      jump\t// out\n        /* \"#utility.yul\":466:562   */\n    tag_68:\n        /* \"#utility.yul\":503:510   */\n      0x00\n        /* \"#utility.yul\":532:556   */\n      tag_93\n        /* \"#utility.yul\":550:555   */\n      dup3\n        /* \"#utility.yul\":532:556   */\n      tag_67\n      jump\t// in\n    tag_93:\n        /* \"#utility.yul\":521:556   */\n      swap1\n      pop\n        /* \"#utility.yul\":466:562   */\n      swap2\n      swap1\n      pop\n      jump\t// out\n        /* \"#utility.yul\":568:690   */\n    tag_69:\n        /* \"#utility.yul\":641:665   */\n      tag_95\n        /* \"#utility.yul\":659:664   */\n      dup2\n        /* \"#utility.yul\":641:665   */\n      tag_68\n      jump\t// in\n    tag_95:\n        /* \"#utility.yul\":634:639   */\n      dup2\n        /* \"#utility.yul\":631:666   */\n      eq\n        /* \"#utility.yul\":621:684   */\n      tag_96\n      jumpi\n        /* \"#utility.yul\":680:681   */\n      0x00\n        /* \"#utility.yul\":677:678   */\n      0x00\n        /* \"#utility.yul\":670:682   */\n      revert\n        /* \"#utility.yul\":621:684   */\n    tag_96:\n        /* \"#utility.yul\":568:690   */\n      pop\n      jump\t// out\n        /* \"#utility.yul\":696:835   */\n    tag_70:\n        /* \"#utility.yul\":742:747   */\n      0x00\n        /* \"#utility.yul\":780:786   */\n      dup2\n        /* \"#utility.yul\":767:787   */\n      calldataload\n        /* \"#utility.yul\":758:787   */\n      swap1\n      pop\n        /* \"#utility.yul\":796:829   */\n      tag_98\n        /* \"#utility.yul\":823:828   */\n      dup2\n        /* \"#utility.yul\":796:829   */\n      tag_69\n      jump\t// in\n    tag_98:\n        /* \"#utility.yul\":696:835   */\n      swap3\n      swap2\n      pop\n      pop\n      jump\t// out\n        /* \"#utility.yul\":841:1170   */\n    tag_10:\n        /* \"#utility.yul\":900:906   */\n      0x00\n        /* \"#utility.yul\":949:951   */\n      0x20\n        /* \"#utility.yul\":937:946   */\n      dup3\n        /* \"#utility.yul\":928:935   */\n      dup5\n        /* \"#utility.yul\":924:947   */\n      sub\n        /* \"#utility.yul\":920:952   */\n      slt\n        /* \"#utility.yul\":917:1036   */\n      iszero\n      tag_100\n      jumpi\n        /* \"#utility.yul\":955:1034   */\n      tag_101\n      tag_65\n      jump\t// in\n    tag_101:\n        /* \"#utility.yul\":917:1036   */\n    tag_100:\n        /* \"#utility.yul\":1075:1076   */\n      0x00\n        /* \"#utility.yul\":1100:1153   */\n      tag_102\n        /* \"#utility.yul\":1145:1152   */\n      dup5\n        /* \"#utility.yul\":1136:1142   */\n      dup3\n        /* \"#utility.yul\":1125:1134   */\n      dup6\n        /* \"#utility.yul\":1121:1143   */\n      add\n        /* \"#utility.yul\":1100:1153   */\n      tag_70\n      jump\t// in\n    tag_102:\n        /* \"#utility.yul\":1090:1153   */\n      swap2\n      pop\n        /* \"#utility.yul\":1046:1163   */\n      pop\n        /* \"#utility.yul\":841:1170   */\n      swap3\n      swap2\n      pop\n      pop\n      jump\t// out\n        /* \"#utility.yul\":1176:1253   */\n    tag_71:\n        /* \"#utility.yul\":1213:1220   */\n      0x00\n        /* \"#utility.yul\":1242:1247   */\n      dup2\n        /* \"#utility.yul\":1231:1247   */\n      swap1\n      pop\n        /* \"#utility.yul\":1176:1253   */\n      swap2\n      swap1\n      pop\n      jump\t// out\n        /* \"#utility.yul\":1259:1377   */\n    tag_72:\n        /* \"#utility.yul\":1346:1370   */\n      tag_105\n        /* \"#utility.yul\":1364:1369   */\n      dup2\n        /* \"#utility.yul\":1346:1370   */\n      tag_71\n      jump\t// in\n    tag_105:\n        /* \"#utility.yul\":1341:1344   */\n      dup3\n        /* \"#utility.yul\":1334:1371   */\n      mstore\n        /* \"#utility.yul\":1259:1377   */\n      pop\n      pop\n      jump\t// out\n        /* \"#utility.yul\":1383:1605   */\n    tag_13:\n        /* \"#utility.yul\":1476:1480   */\n      0x00\n        /* \"#utility.yul\":1514:1516   */\n      0x20\n        /* \"#utility.yul\":1503:1512   */\n      dup3\n        /* \"#utility.yul\":1499:1517   */\n      add\n        /* \"#utility.yul\":1491:1517   */\n      swap1\n      pop\n        /* \"#utility.yul\":1527:1598   */\n      tag_107\n        /* \"#utility.yul\":1595:1596   */\n      0x00\n        /* \"#utility.yul\":1584:1593   */\n      dup4\n        /* \"#utility.yul\":1580:1597   */\n      add\n        /* \"#utility.yul\":1571:1577   */\n      dup5\n        /* \"#utility.yul\":1527:1598   */\n      tag_72\n      jump\t// in\n    tag_107:\n        /* \"#utility.yul\":1383:1605   */\n      swap3\n      swap2\n      pop\n      pop\n      jump\t// out\n        /* \"#utility.yul\":1611:1729   */\n    tag_73:\n        /* \"#utility.yul\":1698:1722   */\n      tag_109\n        /* \"#utility.yul\":1716:1721   */\n      dup2\n        /* \"#utility.yul\":1698:1722   */\n      tag_68\n      jump\t// in\n    tag_109:\n        /* \"#utility.yul\":1693:1696   */\n      dup3\n        /* \"#utility.yul\":1686:1723   */\n      mstore\n        /* \"#utility.yul\":1611:1729   */\n      pop\n      pop\n      jump\t// out\n        /* \"#utility.yul\":1735:1957   */\n    tag_17:\n        /* \"#utility.yul\":1828:1832   */\n      0x00\n        /* \"#utility.yul\":1866:1868   */\n      0x20\n        /* \"#utility.yul\":1855:1864   */\n      dup3\n        /* \"#utility.yul\":1851:1869   */\n      add\n        /* \"#utility.yul\":1843:1869   */\n      swap1\n      pop\n        /* \"#utility.yul\":1879:1950   */\n      tag_111\n        /* \"#utility.yul\":1947:1948   */\n      0x00\n        /* \"#utility.yul\":1936:1945   */\n      dup4\n        /* \"#utility.yul\":1932:1949   */\n      add\n        /* \"#utility.yul\":1923:1929   */\n      dup5\n        /* \"#utility.yul\":1879:1950   */\n      tag_73\n      jump\t// in\n    tag_111:\n        /* \"#utility.yul\":1735:1957   */\n      swap3\n      swap2\n      pop\n      pop\n      jump\t// out\n        /* \"#utility.yul\":1963:2085   */\n    tag_74:\n        /* \"#utility.yul\":2036:2060   */\n      tag_113\n        /* \"#utility.yul\":2054:2059   */\n      dup2\n        /* \"#utility.yul\":2036:2060   */\n      tag_71\n      jump\t// in\n    tag_113:\n        /* \"#utility.yul\":2029:2034   */\n      dup2\n        /* \"#utility.yul\":2026:2061   */\n      eq\n        /* \"#utility.yul\":2016:2079   */\n      tag_114\n      jumpi\n        /* \"#utility.yul\":2075:2076   */\n      0x00\n        /* \"#utility.yul\":2072:2073   */\n      0x00\n        /* \"#utility.yul\":2065:2077   */\n      revert\n        /* \"#utility.yul\":2016:2079   */\n    tag_114:\n        /* \"#utility.yul\":1963:2085   */\n      pop\n      jump\t// out\n        /* \"#utility.yul\":2091:2230   */\n    tag_75:\n        /* \"#utility.yul\":2137:2142   */\n      0x00\n        /* \"#utility.yul\":2175:2181   */\n      dup2\n        /* \"#utility.yul\":2162:2182   */\n      calldataload\n        /* \"#utility.yul\":2153:2182   */\n      swap1\n      pop\n        /* \"#utility.yul\":2191:2224   */\n      tag_116\n        /* \"#utility.yul\":2218:2223   */\n      dup2\n        /* \"#utility.yul\":2191:2224   */\n      tag_74\n      jump\t// in\n    tag_116:\n        /* \"#utility.yul\":2091:2230   */\n      swap3\n      swap2\n      pop\n      pop\n      jump\t// out\n        /* \"#utility.yul\":2236:3001   */\n    tag_20:\n        /* \"#utility.yul\":2322:2328   */\n      0x00\n        /* \"#utility.yul\":2330:2336   */\n      0x00\n        /* \"#utility.yul\":2338:2344   */\n      0x00\n        /* \"#utility.yul\":2346:2352   */\n      0x00\n        /* \"#utility.yul\":2395:2398   */\n      0x80\n        /* \"#utility.yul\":2383:2392   */\n      dup6\n        /* \"#utility.yul\":2374:2381   */\n      dup8\n        /* \"#utility.yul\":2370:2393   */\n      sub\n        /* \"#utility.yul\":2366:2399   */\n      slt\n        /* \"#utility.yul\":2363:2483   */\n      iszero\n      tag_118\n      jumpi\n        /* \"#utility.yul\":2402:2481   */\n      tag_119\n      tag_65\n      jump\t// in\n    tag_119:\n        /* \"#utility.yul\":2363:2483   */\n    tag_118:\n        /* \"#utility.yul\":2522:2523   */\n      0x00\n        /* \"#utility.yul\":2547:2600   */\n      tag_120\n        /* \"#utility.yul\":2592:2599   */\n      dup8\n        /* \"#utility.yul\":2583:2589   */\n      dup3\n        /* \"#utility.yul\":2572:2581   */\n      dup9\n        /* \"#utility.yul\":2568:2590   */\n      add\n        /* \"#utility.yul\":2547:2600   */\n      tag_70\n      jump\t// in\n    tag_120:\n        /* \"#utility.yul\":2537:2600   */\n      swap5\n      pop\n        /* \"#utility.yul\":2493:2610   */\n      pop\n        /* \"#utility.yul\":2649:2651   */\n      0x20\n        /* \"#utility.yul\":2675:2728   */\n      tag_121\n        /* \"#utility.yul\":2720:2727   */\n      dup8\n        /* \"#utility.yul\":2711:2717   */\n      dup3\n        /* \"#utility.yul\":2700:2709   */\n      dup9\n        /* \"#utility.yul\":2696:2718   */\n      add\n        /* \"#utility.yul\":2675:2728   */\n      tag_70\n      jump\t// in\n    tag_121:\n        /* \"#utility.yul\":2665:2728   */\n      swap4\n      pop\n        /* \"#utility.yul\":2620:2738   */\n      pop\n        /* \"#utility.yul\":2777:2779   */\n      0x40\n        /* \"#utility.yul\":2803:2856   */\n      tag_122\n        /* \"#utility.yul\":2848:2855   */\n      dup8\n        /* \"#utility.yul\":2839:2845   */\n      dup3\n        /* \"#utility.yul\":2828:2837   */\n      dup9\n        /* \"#utility.yul\":2824:2846   */\n      add\n        /* \"#utility.yul\":2803:2856   */\n      tag_70\n      jump\t// in\n    tag_122:\n        /* \"#utility.yul\":2793:2856   */\n      swap3\n      pop\n        /* \"#utility.yul\":2748:2866   */\n      pop\n        /* \"#utility.yul\":2905:2907   */\n      0x60\n        /* \"#utility.yul\":2931:2984   */\n      tag_123\n        /* \"#utility.yul\":2976:2983   */\n      dup8\n        /* \"#utility.yul\":2967:2973   */\n      dup3\n        /* \"#utility.yul\":2956:2965   */\n      dup9\n        /* \"#utility.yul\":2952:2974   */\n      add\n        /* \"#utility.yul\":2931:2984   */\n      tag_75\n      jump\t// in\n    tag_123:\n        /* \"#utility.yul\":2921:2984   */\n      swap2\n      pop\n        /* \"#utility.yul\":2876:2994   */\n      pop\n        /* \"#utility.yul\":2236:3001   */\n      swap3\n      swap6\n      swap2\n      swap5\n      pop\n      swap3\n      pop\n      jump\t// out\n        /* \"#utility.yul\":3007:3626   */\n    tag_27:\n        /* \"#utility.yul\":3084:3090   */\n      0x00\n        /* \"#utility.yul\":3092:3098   */\n      0x00\n        /* \"#utility.yul\":3100:3106   */\n      0x00\n        /* \"#utility.yul\":3149:3151   */\n      0x60\n        /* \"#utility.yul\":3137:3146   */\n      dup5\n        /* \"#utility.yul\":3128:3135   */\n      dup7\n        /* \"#utility.yul\":3124:3147   */\n      sub\n        /* \"#utility.yul\":3120:3152   */\n      slt\n        /* \"#utility.yul\":3117:3236   */\n      iszero\n      tag_125\n      jumpi\n        /* \"#utility.yul\":3155:3234   */\n      tag_126\n      tag_65\n      jump\t// in\n    tag_126:\n        /* \"#utility.yul\":3117:3236   */\n    tag_125:\n        /* \"#utility.yul\":3275:3276   */\n      0x00\n        /* \"#utility.yul\":3300:3353   */\n      tag_127\n        /* \"#utility.yul\":3345:3352   */\n      dup7\n        /* \"#utility.yul\":3336:3342   */\n      dup3\n        /* \"#utility.yul\":3325:3334   */\n      dup8\n        /* \"#utility.yul\":3321:3343   */\n      add\n        /* \"#utility.yul\":3300:3353   */\n      tag_70\n      jump\t// in\n    tag_127:\n        /* \"#utility.yul\":3290:3353   */\n      swap4\n      pop\n        /* \"#utility.yul\":3246:3363   */\n      pop\n        /* \"#utility.yul\":3402:3404   */\n      0x20\n        /* \"#utility.yul\":3428:3481   */\n      tag_128\n        /* \"#utility.yul\":3473:3480   */\n      dup7\n        /* \"#utility.yul\":3464:3470   */\n      dup3\n        /* \"#utility.yul\":3453:3462   */\n      dup8\n        /* \"#utility.yul\":3449:3471   */\n      add\n        /* \"#utility.yul\":3428:3481   */\n      tag_70\n      jump\t// in\n    tag_128:\n        /* \"#utility.yul\":3418:3481   */\n      swap3\n      pop\n        /* \"#utility.yul\":3373:3491   */\n      pop\n        /* \"#utility.yul\":3530:3532   */\n      0x40\n        /* \"#utility.yul\":3556:3609   */\n      tag_129\n        /* \"#utility.yul\":3601:3608   */\n      dup7\n        /* \"#utility.yul\":3592:3598   */\n      dup3\n        /* \"#utility.yul\":3581:3590   */\n      dup8\n        /* \"#utility.yul\":3577:3599   */\n      add\n        /* \"#utility.yul\":3556:3609   */\n      tag_75\n      jump\t// in\n    tag_129:\n        /* \"#utility.yul\":3546:3609   */\n      swap2\n      pop\n        /* \"#utility.yul\":3501:3619   */\n      pop\n        /* \"#utility.yul\":3007:3626   */\n      swap3\n      pop\n      swap3\n      pop\n      swap3\n      jump\t// out\n        /* \"#utility.yul\":3632:3775   */\n    tag_76:\n        /* \"#utility.yul\":3689:3694   */\n      0x00\n        /* \"#utility.yul\":3720:3726   */\n      dup2\n        /* \"#utility.yul\":3714:3727   */\n      mload\n        /* \"#utility.yul\":3705:3727   */\n      swap1\n      pop\n        /* \"#utility.yul\":3736:3769   */\n      tag_131\n        /* \"#utility.yul\":3763:3768   */\n      dup2\n        /* \"#utility.yul\":3736:3769   */\n      tag_74\n      jump\t// in\n    tag_131:\n        /* \"#utility.yul\":3632:3775   */\n      swap3\n      swap2\n      pop\n      pop\n      jump\t// out\n        /* \"#utility.yul\":3781:4132   */\n    tag_34:\n        /* \"#utility.yul\":3851:3857   */\n      0x00\n        /* \"#utility.yul\":3900:3902   */\n      0x20\n        /* \"#utility.yul\":3888:3897   */\n      dup3\n        /* \"#utility.yul\":3879:3886   */\n      dup5\n        /* \"#utility.yul\":3875:3898   */\n      sub\n        /* \"#utility.yul\":3871:3903   */\n      slt\n        /* \"#utility.yul\":3868:3987   */\n      iszero\n      tag_133\n      jumpi\n        /* \"#utility.yul\":3906:3985   */\n      tag_134\n      tag_65\n      jump\t// in\n    tag_134:\n        /* \"#utility.yul\":3868:3987   */\n    tag_133:\n        /* \"#utility.yul\":4026:4027   */\n      0x00\n        /* \"#utility.yul\":4051:4115   */\n      tag_135\n        /* \"#utility.yul\":4107:4114   */\n      dup5\n        /* \"#utility.yul\":4098:4104   */\n      dup3\n        /* \"#utility.yul\":4087:4096   */\n      dup6\n        /* \"#utility.yul\":4083:4105   */\n      add\n        /* \"#utility.yul\":4051:4115   */\n      tag_76\n      jump\t// in\n    tag_135:\n        /* \"#utility.yul\":4041:4115   */\n      swap2\n      pop\n        /* \"#utility.yul\":3997:4125   */\n      pop\n        /* \"#utility.yul\":3781:4132   */\n      swap3\n      swap2\n      pop\n      pop\n      jump\t// out\n        /* \"#utility.yul\":4138:4580   */\n    tag_37:\n        /* \"#utility.yul\":4287:4291   */\n      0x00\n        /* \"#utility.yul\":4325:4327   */\n      0x60\n        /* \"#utility.yul\":4314:4323   */\n      dup3\n        /* \"#utility.yul\":4310:4328   */\n      add\n        /* \"#utility.yul\":4302:4328   */\n      swap1\n      pop\n        /* \"#utility.yul\":4338:4409   */\n      tag_137\n        /* \"#utility.yul\":4406:4407   */\n      0x00\n        /* \"#utility.yul\":4395:4404   */\n      dup4\n        /* \"#utility.yul\":4391:4408   */\n      add\n        /* \"#utility.yul\":4382:4388   */\n      dup7\n        /* \"#utility.yul\":4338:4409   */\n      tag_73\n      jump\t// in\n    tag_137:\n        /* \"#utility.yul\":4419:4491   */\n      tag_138\n        /* \"#utility.yul\":4487:4489   */\n      0x20\n        /* \"#utility.yul\":4476:4485   */\n      dup4\n        /* \"#utility.yul\":4472:4490   */\n      add\n        /* \"#utility.yul\":4463:4469   */\n      dup6\n        /* \"#utility.yul\":4419:4491   */\n      tag_73\n      jump\t// in\n    tag_138:\n        /* \"#utility.yul\":4501:4573   */\n      tag_139\n        /* \"#utility.yul\":4569:4571   */\n      0x40\n        /* \"#utility.yul\":4558:4567   */\n      dup4\n        /* \"#utility.yul\":4554:4572   */\n      add\n        /* \"#utility.yul\":4545:4551   */\n      dup5\n        /* \"#utility.yul\":4501:4573   */\n      tag_72\n      jump\t// in\n    tag_139:\n        /* \"#utility.yul\":4138:4580   */\n      swap5\n      swap4\n      pop\n      pop\n      pop\n      pop\n      jump\t// out\n        /* \"#utility.yul\":4586:4676   */\n    tag_77:\n        /* \"#utility.yul\":4620:4627   */\n      0x00\n        /* \"#utility.yul\":4663:4668   */\n      dup2\n        /* \"#utility.yul\":4656:4669   */\n      iszero\n        /* \"#utility.yul\":4649:4670   */\n      iszero\n        /* \"#utility.yul\":4638:4670   */\n      swap1\n      pop\n        /* \"#utility.yul\":4586:4676   */\n      swap2\n      swap1\n      pop\n      jump\t// out\n        /* \"#utility.yul\":4682:4798   */\n    tag_78:\n        /* \"#utility.yul\":4752:4773   */\n      tag_142\n        /* \"#utility.yul\":4767:4772   */\n      dup2\n        /* \"#utility.yul\":4752:4773   */\n      tag_77\n      jump\t// in\n    tag_142:\n        /* \"#utility.yul\":4745:4750   */\n      dup2\n        /* \"#utility.yul\":4742:4774   */\n      eq\n        /* \"#utility.yul\":4732:4792   */\n      tag_143\n      jumpi\n        /* \"#utility.yul\":4788:4789   */\n      0x00\n        /* \"#utility.yul\":4785:4786   */\n      0x00\n        /* \"#utility.yul\":4778:4790   */\n      revert\n        /* \"#utility.yul\":4732:4792   */\n    tag_143:\n        /* \"#utility.yul\":4682:4798   */\n      pop\n      jump\t// out\n        /* \"#utility.yul\":4804:4941   */\n    tag_79:\n        /* \"#utility.yul\":4858:4863   */\n      0x00\n        /* \"#utility.yul\":4889:4895   */\n      dup2\n        /* \"#utility.yul\":4883:4896   */\n      mload\n        /* \"#utility.yul\":4874:4896   */\n      swap1\n      pop\n        /* \"#utility.yul\":4905:4935   */\n      tag_145\n        /* \"#utility.yul\":4929:4934   */\n      dup2\n        /* \"#utility.yul\":4905:4935   */\n      tag_78\n      jump\t// in\n    tag_145:\n        /* \"#utility.yul\":4804:4941   */\n      swap3\n      swap2\n      pop\n      pop\n      jump\t// out\n        /* \"#utility.yul\":4947:5292   */\n    tag_41:\n        /* \"#utility.yul\":5014:5020   */\n      0x00\n        /* \"#utility.yul\":5063:5065   */\n      0x20\n        /* \"#utility.yul\":5051:5060   */\n      dup3\n        /* \"#utility.yul\":5042:5049   */\n      dup5\n        /* \"#utility.yul\":5038:5061   */\n      sub\n        /* \"#utility.yul\":5034:5066   */\n      slt\n        /* \"#utility.yul\":5031:5150   */\n      iszero\n      tag_147\n      jumpi\n        /* \"#utility.yul\":5069:5148   */\n      tag_148\n      tag_65\n      jump\t// in\n    tag_148:\n        /* \"#utility.yul\":5031:5150   */\n    tag_147:\n        /* \"#utility.yul\":5189:5190   */\n      0x00\n        /* \"#utility.yul\":5214:5275   */\n      tag_149\n        /* \"#utility.yul\":5267:5274   */\n      dup5\n        /* \"#utility.yul\":5258:5264   */\n      dup3\n        /* \"#utility.yul\":5247:5256   */\n      dup6\n        /* \"#utility.yul\":5243:5265   */\n      add\n        /* \"#utility.yul\":5214:5275   */\n      tag_79\n      jump\t// in\n    tag_149:\n        /* \"#utility.yul\":5204:5275   */\n      swap2\n      pop\n        /* \"#utility.yul\":5160:5285   */\n      pop\n        /* \"#utility.yul\":4947:5292   */\n      swap3\n      swap2\n      pop\n      pop\n      jump\t// out\n        /* \"#utility.yul\":5298:5467   */\n    tag_80:\n        /* \"#utility.yul\":5382:5393   */\n      0x00\n        /* \"#utility.yul\":5416:5422   */\n      dup3\n        /* \"#utility.yul\":5411:5414   */\n      dup3\n        /* \"#utility.yul\":5404:5423   */\n      mstore\n        /* \"#utility.yul\":5456:5460   */\n      0x20\n        /* \"#utility.yul\":5451:5454   */\n      dup3\n        /* \"#utility.yul\":5447:5461   */\n      add\n        /* \"#utility.yul\":5432:5461   */\n      swap1\n      pop\n        /* \"#utility.yul\":5298:5467   */\n      swap3\n      swap2\n      pop\n      pop\n      jump\t// out\n        /* \"#utility.yul\":5473:5643   */\n    tag_81:\n        /* \"#utility.yul\":5613:5635   */\n      0x7472616e7366657246726f6d2066616c6c696461000000000000000000000000\n        /* \"#utility.yul\":5609:5610   */\n      0x00\n        /* \"#utility.yul\":5601:5607   */\n      dup3\n        /* \"#utility.yul\":5597:5611   */\n      add\n        /* \"#utility.yul\":5590:5636   */\n      mstore\n        /* \"#utility.yul\":5473:5643   */\n      pop\n      jump\t// out\n        /* \"#utility.yul\":5649:6015   */\n    tag_82:\n        /* \"#utility.yul\":5791:5794   */\n      0x00\n        /* \"#utility.yul\":5812:5879   */\n      tag_153\n        /* \"#utility.yul\":5876:5878   */\n      0x14\n        /* \"#utility.yul\":5871:5874   */\n      dup4\n        /* \"#utility.yul\":5812:5879   */\n      tag_80\n      jump\t// in\n    tag_153:\n        /* \"#utility.yul\":5805:5879   */\n      swap2\n      pop\n        /* \"#utility.yul\":5888:5981   */\n      tag_154\n        /* \"#utility.yul\":5977:5980   */\n      dup3\n        /* \"#utility.yul\":5888:5981   */\n      tag_81\n      jump\t// in\n    tag_154:\n        /* \"#utility.yul\":6006:6008   */\n      0x20\n        /* \"#utility.yul\":6001:6004   */\n      dup3\n        /* \"#utility.yul\":5997:6009   */\n      add\n        /* \"#utility.yul\":5990:6009   */\n      swap1\n      pop\n        /* \"#utility.yul\":5649:6015   */\n      swap2\n      swap1\n      pop\n      jump\t// out\n        /* \"#utility.yul\":6021:6440   */\n    tag_44:\n        /* \"#utility.yul\":6187:6191   */\n      0x00\n        /* \"#utility.yul\":6225:6227   */\n      0x20\n        /* \"#utility.yul\":6214:6223   */\n      dup3\n        /* \"#utility.yul\":6210:6228   */\n      add\n        /* \"#utility.yul\":6202:6228   */\n      swap1\n      pop\n        /* \"#utility.yul\":6274:6283   */\n      dup2\n        /* \"#utility.yul\":6268:6272   */\n      dup2\n        /* \"#utility.yul\":6264:6284   */\n      sub\n        /* \"#utility.yul\":6260:6261   */\n      0x00\n        /* \"#utility.yul\":6249:6258   */\n      dup4\n        /* \"#utility.yul\":6245:6262   */\n      add\n        /* \"#utility.yul\":6238:6285   */\n      mstore\n        /* \"#utility.yul\":6302:6433   */\n      tag_156\n        /* \"#utility.yul\":6428:6432   */\n      dup2\n        /* \"#utility.yul\":6302:6433   */\n      tag_82\n      jump\t// in\n    tag_156:\n        /* \"#utility.yul\":6294:6433   */\n      swap1\n      pop\n        /* \"#utility.yul\":6021:6440   */\n      swap2\n      swap1\n      pop\n      jump\t// out\n        /* \"#utility.yul\":6446:6666   */\n    tag_83:\n        /* \"#utility.yul\":6586:6620   */\n      0x536f6c6f20656c206f776e657220707565646520656a65637574617220657374\n        /* \"#utility.yul\":6582:6583   */\n      0x00\n        /* \"#utility.yul\":6574:6580   */\n      dup3\n        /* \"#utility.yul\":6570:6584   */\n      add\n        /* \"#utility.yul\":6563:6621   */\n      mstore\n        /* \"#utility.yul\":6655:6658   */\n      0x6f00000000000000000000000000000000000000000000000000000000000000\n        /* \"#utility.yul\":6650:6652   */\n      0x20\n        /* \"#utility.yul\":6642:6648   */\n      dup3\n        /* \"#utility.yul\":6638:6653   */\n      add\n        /* \"#utility.yul\":6631:6659   */\n      mstore\n        /* \"#utility.yul\":6446:6666   */\n      pop\n      jump\t// out\n        /* \"#utility.yul\":6672:7038   */\n    tag_84:\n        /* \"#utility.yul\":6814:6817   */\n      0x00\n        /* \"#utility.yul\":6835:6902   */\n      tag_159\n        /* \"#utility.yul\":6899:6901   */\n      0x21\n        /* \"#utility.yul\":6894:6897   */\n      dup4\n        /* \"#utility.yul\":6835:6902   */\n      tag_80\n      jump\t// in\n    tag_159:\n        /* \"#utility.yul\":6828:6902   */\n      swap2\n      pop\n        /* \"#utility.yul\":6911:7004   */\n      tag_160\n        /* \"#utility.yul\":7000:7003   */\n      dup3\n        /* \"#utility.yul\":6911:7004   */\n      tag_83\n      jump\t// in\n    tag_160:\n        /* \"#utility.yul\":7029:7031   */\n      0x40\n        /* \"#utility.yul\":7024:7027   */\n      dup3\n        /* \"#utility.yul\":7020:7032   */\n      add\n        /* \"#utility.yul\":7013:7032   */\n      swap1\n      pop\n        /* \"#utility.yul\":6672:7038   */\n      swap2\n      swap1\n      pop\n      jump\t// out\n        /* \"#utility.yul\":7044:7463   */\n    tag_49:\n        /* \"#utility.yul\":7210:7214   */\n      0x00\n        /* \"#utility.yul\":7248:7250   */\n      0x20\n        /* \"#utility.yul\":7237:7246   */\n      dup3\n        /* \"#utility.yul\":7233:7251   */\n      add\n        /* \"#utility.yul\":7225:7251   */\n      swap1\n      pop\n        /* \"#utility.yul\":7297:7306   */\n      dup2\n        /* \"#utility.yul\":7291:7295   */\n      dup2\n        /* \"#utility.yul\":7287:7307   */\n      sub\n        /* \"#utility.yul\":7283:7284   */\n      0x00\n        /* \"#utility.yul\":7272:7281   */\n      dup4\n        /* \"#utility.yul\":7268:7285   */\n      add\n        /* \"#utility.yul\":7261:7308   */\n      mstore\n        /* \"#utility.yul\":7325:7456   */\n      tag_162\n        /* \"#utility.yul\":7451:7455   */\n      dup2\n        /* \"#utility.yul\":7325:7456   */\n      tag_84\n      jump\t// in\n    tag_162:\n        /* \"#utility.yul\":7317:7456   */\n      swap1\n      pop\n        /* \"#utility.yul\":7044:7463   */\n      swap2\n      swap1\n      pop\n      jump\t// out\n        /* \"#utility.yul\":7469:7801   */\n    tag_56:\n        /* \"#utility.yul\":7590:7594   */\n      0x00\n        /* \"#utility.yul\":7628:7630   */\n      0x40\n        /* \"#utility.yul\":7617:7626   */\n      dup3\n        /* \"#utility.yul\":7613:7631   */\n      add\n        /* \"#utility.yul\":7605:7631   */\n      swap1\n      pop\n        /* \"#utility.yul\":7641:7712   */\n      tag_164\n        /* \"#utility.yul\":7709:7710   */\n      0x00\n        /* \"#utility.yul\":7698:7707   */\n      dup4\n        /* \"#utility.yul\":7694:7711   */\n      add\n        /* \"#utility.yul\":7685:7691   */\n      dup6\n        /* \"#utility.yul\":7641:7712   */\n      tag_73\n      jump\t// in\n    tag_164:\n        /* \"#utility.yul\":7722:7794   */\n      tag_165\n        /* \"#utility.yul\":7790:7792   */\n      0x20\n        /* \"#utility.yul\":7779:7788   */\n      dup4\n        /* \"#utility.yul\":7775:7793   */\n      add\n        /* \"#utility.yul\":7766:7772   */\n      dup5\n        /* \"#utility.yul\":7722:7794   */\n      tag_72\n      jump\t// in\n    tag_165:\n        /* \"#utility.yul\":7469:7801   */\n      swap4\n      swap3\n      pop\n      pop\n      pop\n      jump\t// out\n        /* \"#utility.yul\":7807:7978   */\n    tag_85:\n        /* \"#utility.yul\":7947:7970   */\n      0x5472616e73666572656e6369612066616c6c6964610000000000000000000000\n        /* \"#utility.yul\":7943:7944   */\n      0x00\n        /* \"#utility.yul\":7935:7941   */\n      dup3\n        /* \"#utility.yul\":7931:7945   */\n      add\n        /* \"#utility.yul\":7924:7971   */\n      mstore\n        /* \"#utility.yul\":7807:7978   */\n      pop\n      jump\t// out\n        /* \"#utility.yul\":7984:8350   */\n    tag_86:\n        /* \"#utility.yul\":8126:8129   */\n      0x00\n        /* \"#utility.yul\":8147:8214   */\n      tag_168\n        /* \"#utility.yul\":8211:8213   */\n      0x15\n        /* \"#utility.yul\":8206:8209   */\n      dup4\n        /* \"#utility.yul\":8147:8214   */\n      tag_80\n      jump\t// in\n    tag_168:\n        /* \"#utility.yul\":8140:8214   */\n      swap2\n      pop\n        /* \"#utility.yul\":8223:8316   */\n      tag_169\n        /* \"#utility.yul\":8312:8315   */\n      dup3\n        /* \"#utility.yul\":8223:8316   */\n      tag_85\n      jump\t// in\n    tag_169:\n        /* \"#utility.yul\":8341:8343   */\n      0x20\n        /* \"#utility.yul\":8336:8339   */\n      dup3\n        /* \"#utility.yul\":8332:8344   */\n      add\n        /* \"#utility.yul\":8325:8344   */\n      swap1\n      pop\n        /* \"#utility.yul\":7984:8350   */\n      swap2\n      swap1\n      pop\n      jump\t// out\n        /* \"#utility.yul\":8356:8775   */\n    tag_62:\n        /* \"#utility.yul\":8522:8526   */\n      0x00\n        /* \"#utility.yul\":8560:8562   */\n      0x20\n        /* \"#utility.yul\":8549:8558   */\n      dup3\n        /* \"#utility.yul\":8545:8563   */\n      add\n        /* \"#utility.yul\":8537:8563   */\n      swap1\n      pop\n        /* \"#utility.yul\":8609:8618   */\n      dup2\n        /* \"#utility.yul\":8603:8607   */\n      dup2\n        /* \"#utility.yul\":8599:8619   */\n      sub\n        /* \"#utility.yul\":8595:8596   */\n      0x00\n        /* \"#utility.yul\":8584:8593   */\n      dup4\n        /* \"#utility.yul\":8580:8597   */\n      add\n        /* \"#utility.yul\":8573:8620   */\n      mstore\n        /* \"#utility.yul\":8637:8768   */\n      tag_171\n        /* \"#utility.yul\":8763:8767   */\n      dup2\n        /* \"#utility.yul\":8637:8768   */\n      tag_86\n      jump\t// in\n    tag_171:\n        /* \"#utility.yul\":8629:8768   */\n      swap1\n      pop\n        /* \"#utility.yul\":8356:8775   */\n      swap2\n      swap1\n      pop\n      jump\t// out\n\n    auxdata: 0xa2646970667358221220e5352137dbb7db9f5630ab6d91a29e3cb90d56be4b85f4334f5143ba73fb199364736f6c634300081e0033\n}\n",
				"bytecode": {
					"linkReferences": {},
					"object": "6080604052348015600e575f5ffd5b50335f5f6101000a81548173ffffffffffffffffffffffffffffffffffffffff021916908373ffffffffffffffffffffffffffffffffffffffff1602179055506109df8061005b5f395ff3fe608060405234801561000f575f5ffd5b5060043610610055575f3560e01c806366e3e5e4146100595780638da5cb5b14610089578063a0c8f174146100a7578063a6f9dae1146100c3578063f5537ede146100df575b5f5ffd5b610073600480360381019061006e91906105de565b6100fb565b6040516100809190610621565b60405180910390f35b61009161017b565b60405161009e9190610649565b60405180910390f35b6100c160048036038101906100bc919061068c565b61019f565b005b6100dd60048036038101906100d891906105de565b6102e2565b005b6100f960048036038101906100f491906106f0565b6103b2565b005b5f8173ffffffffffffffffffffffffffffffffffffffff166370a08231306040518263ffffffff1660e01b81526004016101359190610649565b602060405180830381865afa158015610150573d5f5f3e3d5ffd5b505050506040513d601f19601f820116820180604052508101906101749190610754565b9050919050565b5f5f9054906101000a900473ffffffffffffffffffffffffffffffffffffffff1681565b5f8473ffffffffffffffffffffffffffffffffffffffff166323b872dd8585856040518463ffffffff1660e01b81526004016101dd9392919061077f565b6020604051808303815f875af11580156101f9573d5f5f3e3d5ffd5b505050506040513d601f19601f8201168201806040525081019061021d91906107e9565b90508061025f576040517f08c379a00000000000000000000000000000000000000000000000000000000081526004016102569061086e565b60405180910390fd5b8273ffffffffffffffffffffffffffffffffffffffff168473ffffffffffffffffffffffffffffffffffffffff168673ffffffffffffffffffffffffffffffffffffffff167fa4162acb2096ecf8e81304c656b4ff4eb143f95264f26ac3dad5a3b96bb68b53856040516102d39190610621565b60405180910390a45050505050565b5f5f9054906101000a900473ffffffffffffffffffffffffffffffffffffffff1673ffffffffffffffffffffffffffffffffffffffff163373ffffffffffffffffffffffffffffffffffffffff1614610370576040517f08c379a0000000000000000000000000000000000000000000000000000000008152600401610367906108fc565b60405180910390fd5b805f5f6101000a81548173ffffffffffffffffffffffffffffffffffffffff021916908373ffffffffffffffffffffffffffffffffffffffff16021790555050565b5f5f9054906101000a900473ffffffffffffffffffffffffffffffffffffffff1673ffffffffffffffffffffffffffffffffffffffff163373ffffffffffffffffffffffffffffffffffffffff1614610440576040517f08c379a0000000000000000000000000000000000000000000000000000000008152600401610437906108fc565b60405180910390fd5b5f8373ffffffffffffffffffffffffffffffffffffffff1663a9059cbb84846040518363ffffffff1660e01b815260040161047c92919061091a565b6020604051808303815f875af1158015610498573d5f5f3e3d5ffd5b505050506040513d601f19601f820116820180604052508101906104bc91906107e9565b9050806104fe576040517f08c379a00000000000000000000000000000000000000000000000000000000081526004016104f59061098b565b60405180910390fd5b8273ffffffffffffffffffffffffffffffffffffffff163073ffffffffffffffffffffffffffffffffffffffff168573ffffffffffffffffffffffffffffffffffffffff167fa4162acb2096ecf8e81304c656b4ff4eb143f95264f26ac3dad5a3b96bb68b53856040516105729190610621565b60405180910390a450505050565b5f5ffd5b5f73ffffffffffffffffffffffffffffffffffffffff82169050919050565b5f6105ad82610584565b9050919050565b6105bd816105a3565b81146105c7575f5ffd5b50565b5f813590506105d8816105b4565b92915050565b5f602082840312156105f3576105f2610580565b5b5f610600848285016105ca565b91505092915050565b5f819050919050565b61061b81610609565b82525050565b5f6020820190506106345f830184610612565b92915050565b610643816105a3565b82525050565b5f60208201905061065c5f83018461063a565b92915050565b61066b81610609565b8114610675575f5ffd5b50565b5f8135905061068681610662565b92915050565b5f5f5f5f608085870312156106a4576106a3610580565b5b5f6106b1878288016105ca565b94505060206106c2878288016105ca565b93505060406106d3878288016105ca565b92505060606106e487828801610678565b91505092959194509250565b5f5f5f6060848603121561070757610706610580565b5b5f610714868287016105ca565b9350506020610725868287016105ca565b925050604061073686828701610678565b9150509250925092565b5f8151905061074e81610662565b92915050565b5f6020828403121561076957610768610580565b5b5f61077684828501610740565b91505092915050565b5f6060820190506107925f83018661063a565b61079f602083018561063a565b6107ac6040830184610612565b949350505050565b5f8115159050919050565b6107c8816107b4565b81146107d2575f5ffd5b50565b5f815190506107e3816107bf565b92915050565b5f602082840312156107fe576107fd610580565b5b5f61080b848285016107d5565b91505092915050565b5f82825260208201905092915050565b7f7472616e7366657246726f6d2066616c6c6964610000000000000000000000005f82015250565b5f610858601483610814565b915061086382610824565b602082019050919050565b5f6020820190508181035f8301526108858161084c565b9050919050565b7f536f6c6f20656c206f776e657220707565646520656a656375746172206573745f8201527f6f00000000000000000000000000000000000000000000000000000000000000602082015250565b5f6108e6602183610814565b91506108f18261088c565b604082019050919050565b5f6020820190508181035f830152610913816108da565b9050919050565b5f60408201905061092d5f83018561063a565b61093a6020830184610612565b9392505050565b7f5472616e73666572656e6369612066616c6c69646100000000000000000000005f82015250565b5f610975601583610814565b915061098082610941565b602082019050919050565b5f6020820190508181035f8301526109a281610969565b905091905056fea2646970667358221220e5352137dbb7db9f5630ab6d91a29e3cb90d56be4b85f4334f5143ba73fb199364736f6c634300081e0033",
					"opcodes": "PUSH1 0x80 PUSH1 0x40 MSTORE CALLVALUE DUP1 ISZERO PUSH1 0xE JUMPI PUSH0 PUSH0 REVERT JUMPDEST POP CALLER PUSH0 PUSH0 PUSH2 0x100 EXP DUP2 SLOAD DUP2 PUSH20 0xFFFFFFFFFFFFFFFFFFFFFFFFFFFFFFFFFFFFFFFF MUL NOT AND SWAP1 DUP4 PUSH20 0xFFFFFFFFFFFFFFFFFFFFFFFFFFFFFFFFFFFFFFFF AND MUL OR SWAP1 SSTORE POP PUSH2 0x9DF DUP1 PUSH2 0x5B PUSH0 CODECOPY PUSH0 RETURN INVALID PUSH1 0x80 PUSH1 0x40 MSTORE CALLVALUE DUP1 ISZERO PUSH2 0xF JUMPI PUSH0 PUSH0 REVERT JUMPDEST POP PUSH1 0x4 CALLDATASIZE LT PUSH2 0x55 JUMPI PUSH0 CALLDATALOAD PUSH1 0xE0 SHR DUP1 PUSH4 0x66E3E5E4 EQ PUSH2 0x59 JUMPI DUP1 PUSH4 0x8DA5CB5B EQ PUSH2 0x89 JUMPI DUP1 PUSH4 0xA0C8F174 EQ PUSH2 0xA7 JUMPI DUP1 PUSH4 0xA6F9DAE1 EQ PUSH2 0xC3 JUMPI DUP1 PUSH4 0xF5537EDE EQ PUSH2 0xDF JUMPI JUMPDEST PUSH0 PUSH0 REVERT JUMPDEST PUSH2 0x73 PUSH1 0x4 DUP1 CALLDATASIZE SUB DUP2 ADD SWAP1 PUSH2 0x6E SWAP2 SWAP1 PUSH2 0x5DE JUMP JUMPDEST PUSH2 0xFB JUMP JUMPDEST PUSH1 0x40 MLOAD PUSH2 0x80 SWAP2 SWAP1 PUSH2 0x621 JUMP JUMPDEST PUSH1 0x40 MLOAD DUP1 SWAP2 SUB SWAP1 RETURN JUMPDEST PUSH2 0x91 PUSH2 0x17B JUMP JUMPDEST PUSH1 0x40 MLOAD PUSH2 0x9E SWAP2 SWAP1 PUSH2 0x649 JUMP JUMPDEST PUSH1 0x40 MLOAD DUP1 SWAP2 SUB SWAP1 RETURN JUMPDEST PUSH2 0xC1 PUSH1 0x4 DUP1 CALLDATASIZE SUB DUP2 ADD SWAP1 PUSH2 0xBC SWAP2 SWAP1 PUSH2 0x68C JUMP JUMPDEST PUSH2 0x19F JUMP JUMPDEST STOP JUMPDEST PUSH2 0xDD PUSH1 0x4 DUP1 CALLDATASIZE SUB DUP2 ADD SWAP1 PUSH2 0xD8 SWAP2 SWAP1 PUSH2 0x5DE JUMP JUMPDEST PUSH2 0x2E2 JUMP JUMPDEST STOP JUMPDEST PUSH2 0xF9 PUSH1 0x4 DUP1 CALLDATASIZE SUB DUP2 ADD SWAP1 PUSH2 0xF4 SWAP2 SWAP1 PUSH2 0x6F0 JUMP JUMPDEST PUSH2 0x3B2 JUMP JUMPDEST STOP JUMPDEST PUSH0 DUP2 PUSH20 0xFFFFFFFFFFFFFFFFFFFFFFFFFFFFFFFFFFFFFFFF AND PUSH4 0x70A08231 ADDRESS PUSH1 0x40 MLOAD DUP3 PUSH4 0xFFFFFFFF AND PUSH1 0xE0 SHL DUP2 MSTORE PUSH1 0x4 ADD PUSH2 0x135 SWAP2 SWAP1 PUSH2 0x649 JUMP JUMPDEST PUSH1 0x20 PUSH1 0x40 MLOAD DUP1 DUP4 SUB DUP2 DUP7 GAS STATICCALL ISZERO DUP1 ISZERO PUSH2 0x150 JUMPI RETURNDATASIZE PUSH0 PUSH0 RETURNDATACOPY RETURNDATASIZE PUSH0 REVERT JUMPDEST POP POP POP POP PUSH1 0x40 MLOAD RETURNDATASIZE PUSH1 0x1F NOT PUSH1 0x1F DUP3 ADD AND DUP3 ADD DUP1 PUSH1 0x40 MSTORE POP DUP2 ADD SWAP1 PUSH2 0x174 SWAP2 SWAP1 PUSH2 0x754 JUMP JUMPDEST SWAP1 POP SWAP2 SWAP1 POP JUMP JUMPDEST PUSH0 PUSH0 SWAP1 SLOAD SWAP1 PUSH2 0x100 EXP SWAP1 DIV PUSH20 0xFFFFFFFFFFFFFFFFFFFFFFFFFFFFFFFFFFFFFFFF AND DUP2 JUMP JUMPDEST PUSH0 DUP5 PUSH20 0xFFFFFFFFFFFFFFFFFFFFFFFFFFFFFFFFFFFFFFFF AND PUSH4 0x23B872DD DUP6 DUP6 DUP6 PUSH1 0x40 MLOAD DUP5 PUSH4 0xFFFFFFFF AND PUSH1 0xE0 SHL DUP2 MSTORE PUSH1 0x4 ADD PUSH2 0x1DD SWAP4 SWAP3 SWAP2 SWAP1 PUSH2 0x77F JUMP JUMPDEST PUSH1 0x20 PUSH1 0x40 MLOAD DUP1 DUP4 SUB DUP2 PUSH0 DUP8 GAS CALL ISZERO DUP1 ISZERO PUSH2 0x1F9 JUMPI RETURNDATASIZE PUSH0 PUSH0 RETURNDATACOPY RETURNDATASIZE PUSH0 REVERT JUMPDEST POP POP POP POP PUSH1 0x40 MLOAD RETURNDATASIZE PUSH1 0x1F NOT PUSH1 0x1F DUP3 ADD AND DUP3 ADD DUP1 PUSH1 0x40 MSTORE POP DUP2 ADD SWAP1 PUSH2 0x21D SWAP2 SWAP1 PUSH2 0x7E9 JUMP JUMPDEST SWAP1 POP DUP1 PUSH2 0x25F JUMPI PUSH1 0x40 MLOAD PUSH32 0x8C379A000000000000000000000000000000000000000000000000000000000 DUP2 MSTORE PUSH1 0x4 ADD PUSH2 0x256 SWAP1 PUSH2 0x86E JUMP JUMPDEST PUSH1 0x40 MLOAD DUP1 SWAP2 SUB SWAP1 REVERT JUMPDEST DUP3 PUSH20 0xFFFFFFFFFFFFFFFFFFFFFFFFFFFFFFFFFFFFFFFF AND DUP5 PUSH20 0xFFFFFFFFFFFFFFFFFFFFFFFFFFFFFFFFFFFFFFFF AND DUP7 PUSH20 0xFFFFFFFFFFFFFFFFFFFFFFFFFFFFFFFFFFFFFFFF AND PUSH32 0xA4162ACB2096ECF8E81304C656B4FF4EB143F95264F26AC3DAD5A3B96BB68B53 DUP6 PUSH1 0x40 MLOAD PUSH2 0x2D3 SWAP2 SWAP1 PUSH2 0x621 JUMP JUMPDEST PUSH1 0x40 MLOAD DUP1 SWAP2 SUB SWAP1 LOG4 POP POP POP POP POP JUMP JUMPDEST PUSH0 PUSH0 SWAP1 SLOAD SWAP1 PUSH2 0x100 EXP SWAP1 DIV PUSH20 0xFFFFFFFFFFFFFFFFFFFFFFFFFFFFFFFFFFFFFFFF AND PUSH20 0xFFFFFFFFFFFFFFFFFFFFFFFFFFFFFFFFFFFFFFFF AND CALLER PUSH20 0xFFFFFFFFFFFFFFFFFFFFFFFFFFFFFFFFFFFFFFFF AND EQ PUSH2 0x370 JUMPI PUSH1 0x40 MLOAD PUSH32 0x8C379A000000000000000000000000000000000000000000000000000000000 DUP2 MSTORE PUSH1 0x4 ADD PUSH2 0x367 SWAP1 PUSH2 0x8FC JUMP JUMPDEST PUSH1 0x40 MLOAD DUP1 SWAP2 SUB SWAP1 REVERT JUMPDEST DUP1 PUSH0 PUSH0 PUSH2 0x100 EXP DUP2 SLOAD DUP2 PUSH20 0xFFFFFFFFFFFFFFFFFFFFFFFFFFFFFFFFFFFFFFFF MUL NOT AND SWAP1 DUP4 PUSH20 0xFFFFFFFFFFFFFFFFFFFFFFFFFFFFFFFFFFFFFFFF AND MUL OR SWAP1 SSTORE POP POP JUMP JUMPDEST PUSH0 PUSH0 SWAP1 SLOAD SWAP1 PUSH2 0x100 EXP SWAP1 DIV PUSH20 0xFFFFFFFFFFFFFFFFFFFFFFFFFFFFFFFFFFFFFFFF AND PUSH20 0xFFFFFFFFFFFFFFFFFFFFFFFFFFFFFFFFFFFFFFFF AND CALLER PUSH20 0xFFFFFFFFFFFFFFFFFFFFFFFFFFFFFFFFFFFFFFFF AND EQ PUSH2 0x440 JUMPI PUSH1 0x40 MLOAD PUSH32 0x8C379A000000000000000000000000000000000000000000000000000000000 DUP2 MSTORE PUSH1 0x4 ADD PUSH2 0x437 SWAP1 PUSH2 0x8FC JUMP JUMPDEST PUSH1 0x40 MLOAD DUP1 SWAP2 SUB SWAP1 REVERT JUMPDEST PUSH0 DUP4 PUSH20 0xFFFFFFFFFFFFFFFFFFFFFFFFFFFFFFFFFFFFFFFF AND PUSH4 0xA9059CBB DUP5 DUP5 PUSH1 0x40 MLOAD DUP4 PUSH4 0xFFFFFFFF AND PUSH1 0xE0 SHL DUP2 MSTORE PUSH1 0x4 ADD PUSH2 0x47C SWAP3 SWAP2 SWAP1 PUSH2 0x91A JUMP JUMPDEST PUSH1 0x20 PUSH1 0x40 MLOAD DUP1 DUP4 SUB DUP2 PUSH0 DUP8 GAS CALL ISZERO DUP1 ISZERO PUSH2 0x498 JUMPI RETURNDATASIZE PUSH0 PUSH0 RETURNDATACOPY RETURNDATASIZE PUSH0 REVERT JUMPDEST POP POP POP POP PUSH1 0x40 MLOAD RETURNDATASIZE PUSH1 0x1F NOT PUSH1 0x1F DUP3 ADD AND DUP3 ADD DUP1 PUSH1 0x40 MSTORE POP DUP2 ADD SWAP1 PUSH2 0x4BC SWAP2 SWAP1 PUSH2 0x7E9 JUMP JUMPDEST SWAP1 POP DUP1 PUSH2 0x4FE JUMPI PUSH1 0x40 MLOAD PUSH32 0x8C379A000000000000000000000000000000000000000000000000000000000 DUP2 MSTORE PUSH1 0x4 ADD PUSH2 0x4F5 SWAP1 PUSH2 0x98B JUMP JUMPDEST PUSH1 0x40 MLOAD DUP1 SWAP2 SUB SWAP1 REVERT JUMPDEST DUP3 PUSH20 0xFFFFFFFFFFFFFFFFFFFFFFFFFFFFFFFFFFFFFFFF AND ADDRESS PUSH20 0xFFFFFFFFFFFFFFFFFFFFFFFFFFFFFFFFFFFFFFFF AND DUP6 PUSH20 0xFFFFFFFFFFFFFFFFFFFFFFFFFFFFFFFFFFFFFFFF AND PUSH32 0xA4162ACB2096ECF8E81304C656B4FF4EB143F95264F26AC3DAD5A3B96BB68B53 DUP6 PUSH1 0x40 MLOAD PUSH2 0x572 SWAP2 SWAP1 PUSH2 0x621 JUMP JUMPDEST PUSH1 0x40 MLOAD DUP1 SWAP2 SUB SWAP1 LOG4 POP POP POP POP JUMP JUMPDEST PUSH0 PUSH0 REVERT JUMPDEST PUSH0 PUSH20 0xFFFFFFFFFFFFFFFFFFFFFFFFFFFFFFFFFFFFFFFF DUP3 AND SWAP1 POP SWAP2 SWAP1 POP JUMP JUMPDEST PUSH0 PUSH2 0x5AD DUP3 PUSH2 0x584 JUMP JUMPDEST SWAP1 POP SWAP2 SWAP1 POP JUMP JUMPDEST PUSH2 0x5BD DUP2 PUSH2 0x5A3 JUMP JUMPDEST DUP2 EQ PUSH2 0x5C7 JUMPI PUSH0 PUSH0 REVERT JUMPDEST POP JUMP JUMPDEST PUSH0 DUP2 CALLDATALOAD SWAP1 POP PUSH2 0x5D8 DUP2 PUSH2 0x5B4 JUMP JUMPDEST SWAP3 SWAP2 POP POP JUMP JUMPDEST PUSH0 PUSH1 0x20 DUP3 DUP5 SUB SLT ISZERO PUSH2 0x5F3 JUMPI PUSH2 0x5F2 PUSH2 0x580 JUMP JUMPDEST JUMPDEST PUSH0 PUSH2 0x600 DUP5 DUP3 DUP6 ADD PUSH2 0x5CA JUMP JUMPDEST SWAP2 POP POP SWAP3 SWAP2 POP POP JUMP JUMPDEST PUSH0 DUP2 SWAP1 POP SWAP2 SWAP1 POP JUMP JUMPDEST PUSH2 0x61B DUP2 PUSH2 0x609 JUMP JUMPDEST DUP3 MSTORE POP POP JUMP JUMPDEST PUSH0 PUSH1 0x20 DUP3 ADD SWAP1 POP PUSH2 0x634 PUSH0 DUP4 ADD DUP5 PUSH2 0x612 JUMP JUMPDEST SWAP3 SWAP2 POP POP JUMP JUMPDEST PUSH2 0x643 DUP2 PUSH2 0x5A3 JUMP JUMPDEST DUP3 MSTORE POP POP JUMP JUMPDEST PUSH0 PUSH1 0x20 DUP3 ADD SWAP1 POP PUSH2 0x65C PUSH0 DUP4 ADD DUP5 PUSH2 0x63A JUMP JUMPDEST SWAP3 SWAP2 POP POP JUMP JUMPDEST PUSH2 0x66B DUP2 PUSH2 0x609 JUMP JUMPDEST DUP2 EQ PUSH2 0x675 JUMPI PUSH0 PUSH0 REVERT JUMPDEST POP JUMP JUMPDEST PUSH0 DUP2 CALLDATALOAD SWAP1 POP PUSH2 0x686 DUP2 PUSH2 0x662 JUMP JUMPDEST SWAP3 SWAP2 POP POP JUMP JUMPDEST PUSH0 PUSH0 PUSH0 PUSH0 PUSH1 0x80 DUP6 DUP8 SUB SLT ISZERO PUSH2 0x6A4 JUMPI PUSH2 0x6A3 PUSH2 0x580 JUMP JUMPDEST JUMPDEST PUSH0 PUSH2 0x6B1 DUP8 DUP3 DUP9 ADD PUSH2 0x5CA JUMP JUMPDEST SWAP5 POP POP PUSH1 0x20 PUSH2 0x6C2 DUP8 DUP3 DUP9 ADD PUSH2 0x5CA JUMP JUMPDEST SWAP4 POP POP PUSH1 0x40 PUSH2 0x6D3 DUP8 DUP3 DUP9 ADD PUSH2 0x5CA JUMP JUMPDEST SWAP3 POP POP PUSH1 0x60 PUSH2 0x6E4 DUP8 DUP3 DUP9 ADD PUSH2 0x678 JUMP JUMPDEST SWAP2 POP POP SWAP3 SWAP6 SWAP2 SWAP5 POP SWAP3 POP JUMP JUMPDEST PUSH0 PUSH0 PUSH0 PUSH1 0x60 DUP5 DUP7 SUB SLT ISZERO PUSH2 0x707 JUMPI PUSH2 0x706 PUSH2 0x580 JUMP JUMPDEST JUMPDEST PUSH0 PUSH2 0x714 DUP7 DUP3 DUP8 ADD PUSH2 0x5CA JUMP JUMPDEST SWAP4 POP POP PUSH1 0x20 PUSH2 0x725 DUP7 DUP3 DUP8 ADD PUSH2 0x5CA JUMP JUMPDEST SWAP3 POP POP PUSH1 0x40 PUSH2 0x736 DUP7 DUP3 DUP8 ADD PUSH2 0x678 JUMP JUMPDEST SWAP2 POP POP SWAP3 POP SWAP3 POP SWAP3 JUMP JUMPDEST PUSH0 DUP2 MLOAD SWAP1 POP PUSH2 0x74E DUP2 PUSH2 0x662 JUMP JUMPDEST SWAP3 SWAP2 POP POP JUMP JUMPDEST PUSH0 PUSH1 0x20 DUP3 DUP5 SUB SLT ISZERO PUSH2 0x769 JUMPI PUSH2 0x768 PUSH2 0x580 JUMP JUMPDEST JUMPDEST PUSH0 PUSH2 0x776 DUP5 DUP3 DUP6 ADD PUSH2 0x740 JUMP JUMPDEST SWAP2 POP POP SWAP3 SWAP2 POP POP JUMP JUMPDEST PUSH0 PUSH1 0x60 DUP3 ADD SWAP1 POP PUSH2 0x792 PUSH0 DUP4 ADD DUP7 PUSH2 0x63A JUMP JUMPDEST PUSH2 0x79F PUSH1 0x20 DUP4 ADD DUP6 PUSH2 0x63A JUMP JUMPDEST PUSH2 0x7AC PUSH1 0x40 DUP4 ADD DUP5 PUSH2 0x612 JUMP JUMPDEST SWAP5 SWAP4 POP POP POP POP JUMP JUMPDEST PUSH0 DUP2 ISZERO ISZERO SWAP1 POP SWAP2 SWAP1 POP JUMP JUMPDEST PUSH2 0x7C8 DUP2 PUSH2 0x7B4 JUMP JUMPDEST DUP2 EQ PUSH2 0x7D2 JUMPI PUSH0 PUSH0 REVERT JUMPDEST POP JUMP JUMPDEST PUSH0 DUP2 MLOAD SWAP1 POP PUSH2 0x7E3 DUP2 PUSH2 0x7BF JUMP JUMPDEST SWAP3 SWAP2 POP POP JUMP JUMPDEST PUSH0 PUSH1 0x20 DUP3 DUP5 SUB SLT ISZERO PUSH2 0x7FE JUMPI PUSH2 0x7FD PUSH2 0x580 JUMP JUMPDEST JUMPDEST PUSH0 PUSH2 0x80B DUP5 DUP3 DUP6 ADD PUSH2 0x7D5 JUMP JUMPDEST SWAP2 POP POP SWAP3 SWAP2 POP POP JUMP JUMPDEST PUSH0 DUP3 DUP3 MSTORE PUSH1 0x20 DUP3 ADD SWAP1 POP SWAP3 SWAP2 POP POP JUMP JUMPDEST PUSH32 0x7472616E7366657246726F6D2066616C6C696461000000000000000000000000 PUSH0 DUP3 ADD MSTORE POP JUMP JUMPDEST PUSH0 PUSH2 0x858 PUSH1 0x14 DUP4 PUSH2 0x814 JUMP JUMPDEST SWAP2 POP PUSH2 0x863 DUP3 PUSH2 0x824 JUMP JUMPDEST PUSH1 0x20 DUP3 ADD SWAP1 POP SWAP2 SWAP1 POP JUMP JUMPDEST PUSH0 PUSH1 0x20 DUP3 ADD SWAP1 POP DUP2 DUP2 SUB PUSH0 DUP4 ADD MSTORE PUSH2 0x885 DUP2 PUSH2 0x84C JUMP JUMPDEST SWAP1 POP SWAP2 SWAP1 POP JUMP JUMPDEST PUSH32 0x536F6C6F20656C206F776E657220707565646520656A65637574617220657374 PUSH0 DUP3 ADD MSTORE PUSH32 0x6F00000000000000000000000000000000000000000000000000000000000000 PUSH1 0x20 DUP3 ADD MSTORE POP JUMP JUMPDEST PUSH0 PUSH2 0x8E6 PUSH1 0x21 DUP4 PUSH2 0x814 JUMP JUMPDEST SWAP2 POP PUSH2 0x8F1 DUP3 PUSH2 0x88C JUMP JUMPDEST PUSH1 0x40 DUP3 ADD SWAP1 POP SWAP2 SWAP1 POP JUMP JUMPDEST PUSH0 PUSH1 0x20 DUP3 ADD SWAP1 POP DUP2 DUP2 SUB PUSH0 DUP4 ADD MSTORE PUSH2 0x913 DUP2 PUSH2 0x8DA JUMP JUMPDEST SWAP1 POP SWAP2 SWAP1 POP JUMP JUMPDEST PUSH0 PUSH1 0x40 DUP3 ADD SWAP1 POP PUSH2 0x92D PUSH0 DUP4 ADD DUP6 PUSH2 0x63A JUMP JUMPDEST PUSH2 0x93A PUSH1 0x20 DUP4 ADD DUP5 PUSH2 0x612 JUMP JUMPDEST SWAP4 SWAP3 POP POP POP JUMP JUMPDEST PUSH32 0x5472616E73666572656E6369612066616C6C6964610000000000000000000000 PUSH0 DUP3 ADD MSTORE POP JUMP JUMPDEST PUSH0 PUSH2 0x975 PUSH1 0x15 DUP4 PUSH2 0x814 JUMP JUMPDEST SWAP2 POP PUSH2 0x980 DUP3 PUSH2 0x941 JUMP JUMPDEST PUSH1 0x20 DUP3 ADD SWAP1 POP SWAP2 SWAP1 POP JUMP JUMPDEST PUSH0 PUSH1 0x20 DUP3 ADD SWAP1 POP DUP2 DUP2 SUB PUSH0 DUP4 ADD MSTORE PUSH2 0x9A2 DUP2 PUSH2 0x969 JUMP JUMPDEST SWAP1 POP SWAP2 SWAP1 POP JUMP INVALID LOG2 PUSH5 0x6970667358 0x22 SLT KECCAK256 JUMPF 0x3521 CALLDATACOPY 0xDB 0xB7 0xDB SWAP16 JUMP ADDRESS 0xAB PUSH14 0x91A29E3CB90D56BE4B85F4334F51 NUMBER 0xBA PUSH20 0xFB199364736F6C634300081E0033000000000000 "
				},
				"gasEstimates": {
					"creation": {
						"codeDepositCost": "505400",
						"executionCost": "24799",
						"totalCost": "530199"
					},
					"external": {
						"changeOwner(address)": "26926",
						"contractTokenBalance(address)": "infinite",
						"owner()": "2507",
						"transferFromUser(address,address,address,uint256)": "infinite",
						"transferToken(address,address,uint256)": "infinite"
					}
				},
				"methodIdentifiers": {
					"changeOwner(address)": "a6f9dae1",
					"contractTokenBalance(address)": "66e3e5e4",
					"owner()": "8da5cb5b",
					"transferFromUser(address,address,address,uint256)": "a0c8f174",
					"transferToken(address,address,uint256)": "f5537ede"
				}
			},
			"storageLayout": {
				"storage": [
					{
						"astId": 45,
						"contract": "contracts/TokenTransfer.sol:TokenTransfer",
						"label": "owner",
						"offset": 0,
						"slot": "0",
						"type": "t_address"
					}
				],
				"types": {
					"t_address": {
						"encoding": "inplace",
						"label": "address",
						"numberOfBytes": "20"
					}
				}
			},
			"userdoc": {
				"kind": "user",
				"methods": {},
				"version": 1
			}
		}
	}
}